{
  "contractName": "Bagriv1",
  "abi": [
    {
      "inputs": [
        {
          "internalType": "string",
          "name": "season_id",
          "type": "string"
        }
      ],
      "name": "getSeason",
      "outputs": [
        {
          "components": [
            {
              "internalType": "string",
              "name": "season_id",
              "type": "string"
            },
            {
              "internalType": "string",
              "name": "processes",
              "type": "string"
            },
            {
              "internalType": "string",
              "name": "start_date",
              "type": "string"
            },
            {
              "internalType": "string",
              "name": "end_date",
              "type": "string"
            },
            {
              "internalType": "string",
              "name": "name",
              "type": "string"
            },
            {
              "internalType": "string",
              "name": "garden_id",
              "type": "string"
            },
            {
              "internalType": "string[]",
              "name": "task_ids",
              "type": "string[]"
            },
            {
              "internalType": "string",
              "name": "tree_id",
              "type": "string"
            }
          ],
          "internalType": "struct Bagriv1.Season",
          "name": "",
          "type": "tuple"
        }
      ],
      "stateMutability": "view",
      "type": "function",
      "constant": true
    },
    {
      "inputs": [
        {
          "components": [
            {
              "internalType": "string",
              "name": "season_id",
              "type": "string"
            },
            {
              "internalType": "string",
              "name": "processes",
              "type": "string"
            },
            {
              "internalType": "string",
              "name": "start_date",
              "type": "string"
            },
            {
              "internalType": "string",
              "name": "end_date",
              "type": "string"
            },
            {
              "internalType": "string",
              "name": "name",
              "type": "string"
            },
            {
              "internalType": "string",
              "name": "garden_id",
              "type": "string"
            },
            {
              "internalType": "string[]",
              "name": "task_ids",
              "type": "string[]"
            },
            {
              "internalType": "string",
              "name": "tree_id",
              "type": "string"
            }
          ],
          "internalType": "struct Bagriv1.Season",
          "name": "season",
          "type": "tuple"
        }
      ],
      "name": "createSeason",
      "outputs": [],
      "stateMutability": "nonpayable",
      "type": "function"
    },
    {
      "inputs": [
        {
          "components": [
            {
              "internalType": "string",
              "name": "season_id",
              "type": "string"
            },
            {
              "internalType": "string",
              "name": "processes",
              "type": "string"
            },
            {
              "internalType": "string",
              "name": "start_date",
              "type": "string"
            },
            {
              "internalType": "string",
              "name": "end_date",
              "type": "string"
            },
            {
              "internalType": "string",
              "name": "name",
              "type": "string"
            },
            {
              "internalType": "string",
              "name": "garden_id",
              "type": "string"
            },
            {
              "internalType": "string[]",
              "name": "task_ids",
              "type": "string[]"
            },
            {
              "internalType": "string",
              "name": "tree_id",
              "type": "string"
            }
          ],
          "internalType": "struct Bagriv1.Season",
          "name": "season",
          "type": "tuple"
        }
      ],
      "name": "updateSeason",
      "outputs": [],
      "stateMutability": "nonpayable",
      "type": "function"
    },
    {
      "inputs": [
        {
          "internalType": "string",
          "name": "garden_id",
          "type": "string"
        }
      ],
      "name": "getGarden",
      "outputs": [
        {
          "components": [
            {
              "internalType": "string",
              "name": "garden_id",
              "type": "string"
            },
            {
              "internalType": "string",
              "name": "name",
              "type": "string"
            },
            {
              "internalType": "string",
              "name": "area",
              "type": "string"
            },
            {
              "internalType": "string",
              "name": "season_id",
              "type": "string"
            }
          ],
          "internalType": "struct Bagriv1.Garden",
          "name": "",
          "type": "tuple"
        }
      ],
      "stateMutability": "view",
      "type": "function",
      "constant": true
    },
    {
      "inputs": [
        {
          "components": [
            {
              "internalType": "string",
              "name": "garden_id",
              "type": "string"
            },
            {
              "internalType": "string",
              "name": "name",
              "type": "string"
            },
            {
              "internalType": "string",
              "name": "area",
              "type": "string"
            },
            {
              "internalType": "string",
              "name": "season_id",
              "type": "string"
            }
          ],
          "internalType": "struct Bagriv1.Garden",
          "name": "garden",
          "type": "tuple"
        }
      ],
      "name": "createGarden",
      "outputs": [],
      "stateMutability": "nonpayable",
      "type": "function"
    },
    {
      "inputs": [
        {
          "components": [
            {
              "internalType": "string",
              "name": "garden_id",
              "type": "string"
            },
            {
              "internalType": "string",
              "name": "name",
              "type": "string"
            },
            {
              "internalType": "string",
              "name": "area",
              "type": "string"
            },
            {
              "internalType": "string",
              "name": "season_id",
              "type": "string"
            }
          ],
          "internalType": "struct Bagriv1.Garden",
          "name": "garden",
          "type": "tuple"
        }
      ],
      "name": "updateGarden",
      "outputs": [],
      "stateMutability": "nonpayable",
      "type": "function"
    },
    {
      "inputs": [
        {
          "internalType": "string",
          "name": "task_id",
          "type": "string"
        }
      ],
      "name": "getTask",
      "outputs": [
        {
          "components": [
            {
              "internalType": "string",
              "name": "task_id",
              "type": "string"
            },
            {
              "internalType": "string",
              "name": "name",
              "type": "string"
            },
            {
              "internalType": "string",
              "name": "description",
              "type": "string"
            },
            {
              "internalType": "string",
              "name": "date",
              "type": "string"
            },
            {
              "internalType": "string",
              "name": "start_time",
              "type": "string"
            },
            {
              "internalType": "string",
              "name": "end_time",
              "type": "string"
            },
            {
              "internalType": "string",
              "name": "results",
              "type": "string"
            },
            {
              "internalType": "string",
              "name": "season_id",
              "type": "string"
            },
            {
              "internalType": "string[]",
              "name": "farmer_ids",
              "type": "string[]"
            }
          ],
          "internalType": "struct Bagriv1.Task",
          "name": "",
          "type": "tuple"
        }
      ],
      "stateMutability": "view",
      "type": "function",
      "constant": true
    },
    {
      "inputs": [
        {
          "components": [
            {
              "internalType": "string",
              "name": "task_id",
              "type": "string"
            },
            {
              "internalType": "string",
              "name": "name",
              "type": "string"
            },
            {
              "internalType": "string",
              "name": "description",
              "type": "string"
            },
            {
              "internalType": "string",
              "name": "date",
              "type": "string"
            },
            {
              "internalType": "string",
              "name": "start_time",
              "type": "string"
            },
            {
              "internalType": "string",
              "name": "end_time",
              "type": "string"
            },
            {
              "internalType": "string",
              "name": "results",
              "type": "string"
            },
            {
              "internalType": "string",
              "name": "season_id",
              "type": "string"
            },
            {
              "internalType": "string[]",
              "name": "farmer_ids",
              "type": "string[]"
            }
          ],
          "internalType": "struct Bagriv1.Task",
          "name": "task",
          "type": "tuple"
        }
      ],
      "name": "createTask",
      "outputs": [],
      "stateMutability": "nonpayable",
      "type": "function"
    },
    {
      "inputs": [
        {
          "components": [
            {
              "internalType": "string",
              "name": "task_id",
              "type": "string"
            },
            {
              "internalType": "string",
              "name": "name",
              "type": "string"
            },
            {
              "internalType": "string",
              "name": "description",
              "type": "string"
            },
            {
              "internalType": "string",
              "name": "date",
              "type": "string"
            },
            {
              "internalType": "string",
              "name": "start_time",
              "type": "string"
            },
            {
              "internalType": "string",
              "name": "end_time",
              "type": "string"
            },
            {
              "internalType": "string",
              "name": "results",
              "type": "string"
            },
            {
              "internalType": "string",
              "name": "season_id",
              "type": "string"
            },
            {
              "internalType": "string[]",
              "name": "farmer_ids",
              "type": "string[]"
            }
          ],
          "internalType": "struct Bagriv1.Task",
          "name": "task",
          "type": "tuple"
        }
      ],
      "name": "updateTask",
      "outputs": [],
      "stateMutability": "nonpayable",
      "type": "function"
    },
    {
      "inputs": [
        {
          "internalType": "string",
          "name": "farmer_id",
          "type": "string"
        }
      ],
      "name": "getFarmer",
      "outputs": [
        {
          "components": [
            {
              "internalType": "string",
              "name": "farmer_id",
              "type": "string"
            },
            {
              "internalType": "string",
              "name": "name",
              "type": "string"
            },
            {
              "internalType": "string",
              "name": "task_id",
              "type": "string"
            }
          ],
          "internalType": "struct Bagriv1.Farmer",
          "name": "",
          "type": "tuple"
        }
      ],
      "stateMutability": "view",
      "type": "function",
      "constant": true
    },
    {
      "inputs": [
        {
          "components": [
            {
              "internalType": "string",
              "name": "farmer_id",
              "type": "string"
            },
            {
              "internalType": "string",
              "name": "name",
              "type": "string"
            },
            {
              "internalType": "string",
              "name": "task_id",
              "type": "string"
            }
          ],
          "internalType": "struct Bagriv1.Farmer",
          "name": "farmer",
          "type": "tuple"
        }
      ],
      "name": "createFarmer",
      "outputs": [],
      "stateMutability": "nonpayable",
      "type": "function"
    },
    {
      "inputs": [
        {
          "components": [
            {
              "internalType": "string",
              "name": "farmer_id",
              "type": "string"
            },
            {
              "internalType": "string",
              "name": "name",
              "type": "string"
            },
            {
              "internalType": "string",
              "name": "task_id",
              "type": "string"
            }
          ],
          "internalType": "struct Bagriv1.Farmer",
          "name": "farmer",
          "type": "tuple"
        }
      ],
      "name": "updateFarmer",
      "outputs": [],
      "stateMutability": "nonpayable",
      "type": "function"
    },
    {
      "inputs": [
        {
          "internalType": "string",
          "name": "tree_id",
          "type": "string"
        }
      ],
      "name": "getTree",
      "outputs": [
        {
          "components": [
            {
              "internalType": "string",
              "name": "tree_id",
              "type": "string"
            },
            {
              "internalType": "string",
              "name": "name",
              "type": "string"
            },
            {
              "internalType": "string",
              "name": "description",
              "type": "string"
            },
            {
              "internalType": "string",
              "name": "season_id",
              "type": "string"
            }
          ],
          "internalType": "struct Bagriv1.Tree",
          "name": "",
          "type": "tuple"
        }
      ],
      "stateMutability": "view",
      "type": "function",
      "constant": true
    },
    {
      "inputs": [
        {
          "components": [
            {
              "internalType": "string",
              "name": "tree_id",
              "type": "string"
            },
            {
              "internalType": "string",
              "name": "name",
              "type": "string"
            },
            {
              "internalType": "string",
              "name": "description",
              "type": "string"
            },
            {
              "internalType": "string",
              "name": "season_id",
              "type": "string"
            }
          ],
          "internalType": "struct Bagriv1.Tree",
          "name": "tree",
          "type": "tuple"
        }
      ],
      "name": "createTree",
      "outputs": [],
      "stateMutability": "nonpayable",
      "type": "function"
    },
    {
      "inputs": [
        {
          "components": [
            {
              "internalType": "string",
              "name": "tree_id",
              "type": "string"
            },
            {
              "internalType": "string",
              "name": "name",
              "type": "string"
            },
            {
              "internalType": "string",
              "name": "description",
              "type": "string"
            },
            {
              "internalType": "string",
              "name": "season_id",
              "type": "string"
            }
          ],
          "internalType": "struct Bagriv1.Tree",
          "name": "tree",
          "type": "tuple"
        }
      ],
      "name": "updateTree",
      "outputs": [],
      "stateMutability": "nonpayable",
      "type": "function"
    },
    {
      "inputs": [],
      "name": "initialize",
      "outputs": [],
      "stateMutability": "nonpayable",
      "type": "function"
    },
    {
      "inputs": [],
      "name": "getStatus",
      "outputs": [
        {
          "internalType": "bool",
          "name": "",
          "type": "bool"
        }
      ],
      "stateMutability": "view",
      "type": "function",
      "constant": true
    },
    {
      "inputs": [
        {
          "internalType": "bool",
          "name": "active",
          "type": "bool"
        }
      ],
      "name": "setStatus",
      "outputs": [],
      "stateMutability": "nonpayable",
      "type": "function"
    }
  ],
  "bytecode": "0x608060405234801561001057600080fd5b50613765806100206000396000f3fe608060405234801561001057600080fd5b50600436106101165760003560e01c80636207cc94116100a25780638129fc1c116100715780638129fc1c146102d9578063b1514942146102e3578063e642574614610313578063f539e1d31461032f578063fd5551731461034b57610116565b80636207cc94146102555780636a63eade146102715780637dec56e01461028d5780637fa134eb146102bd57610116565b80634b6d3a3c116100e95780634b6d3a3c146101b35780634e69d560146101cf578063540a310d146101ed5780635587b1ca1461021d5780635c40f6f41461023957610116565b80630e46a28a1461011b57806312c1d14c1461014b5780633f527ead146101675780634240803d14610183575b600080fd5b61013560048036038101906101309190612d0b565b610367565b6040516101429190613442565b60405180910390f35b61016560048036038101906101609190612d4c565b61063c565b005b610181600480360381019061017c9190612e0f565b61070c565b005b61019d60048036038101906101989190612d0b565b61088b565b6040516101aa9190613420565b60405180910390f35b6101cd60048036038101906101c89190612d8d565b610e82565b005b6101d7610f6f565b6040516101e4919061333f565b60405180910390f35b61020760048036038101906102029190612d0b565b610f85565b60405161021491906133dc565b60405180910390f35b61023760048036038101906102329190612e50565b61125a565b005b610253600480360381019061024e9190612ce2565b611347565b005b61026f600480360381019061026a9190612d4c565b6113f4565b005b61028b60048036038101906102869190612dce565b6114c4565b005b6102a760048036038101906102a29190612d0b565b611625565b6040516102b491906133fe565b60405180910390f35b6102d760048036038101906102d29190612dce565b611b8a565b005b6102e1611ceb565b005b6102fd60048036038101906102f89190612d0b565b611e2b565b60405161030a91906133ba565b60405180910390f35b61032d60048036038101906103289190612e50565b61206e565b005b61034960048036038101906103449190612e0f565b61215b565b005b61036560048036038101906103609190612d8d565b6122da565b005b61036f6123eb565b600060029054906101000a900460ff166103be576040517f08c379a00000000000000000000000000000000000000000000000000000000081526004016103b59061339a565b60405180910390fd5b60006005836040516103d09190613328565b90815260200160405180910390209050806040518060800160405290816000820180546103fc906135a5565b80601f0160208091040260200160405190810160405280929190818152602001828054610428906135a5565b80156104755780601f1061044a57610100808354040283529160200191610475565b820191906000526020600020905b81548152906001019060200180831161045857829003601f168201915b5050505050815260200160018201805461048e906135a5565b80601f01602080910402602001604051908101604052809291908181526020018280546104ba906135a5565b80156105075780601f106104dc57610100808354040283529160200191610507565b820191906000526020600020905b8154815290600101906020018083116104ea57829003601f168201915b50505050508152602001600282018054610520906135a5565b80601f016020809104026020016040519081016040528092919081815260200182805461054c906135a5565b80156105995780601f1061056e57610100808354040283529160200191610599565b820191906000526020600020905b81548152906001019060200180831161057c57829003601f168201915b505050505081526020016003820180546105b2906135a5565b80601f01602080910402602001604051908101604052809291908181526020018280546105de906135a5565b801561062b5780601f106106005761010080835404028352916020019161062b565b820191906000526020600020905b81548152906001019060200180831161060e57829003601f168201915b505050505081525050915050919050565b600060029054906101000a900460ff1661068b576040517f08c379a00000000000000000000000000000000000000000000000000000000081526004016106829061339a565b60405180910390fd5b6000600482600001516040516106a19190613328565b9081526020016040518091039020905081600001518160000190805190602001906106cd929190612413565b5081602001518160010190805190602001906106ea929190612413565b508160400151816002019080519060200190610707929190612413565b505050565b600060029054906101000a900460ff1661075b576040517f08c379a00000000000000000000000000000000000000000000000000000000081526004016107529061339a565b60405180910390fd5b6000600382600001516040516107719190613328565b90815260200160405180910390209050816000015181600001908051906020019061079d929190612413565b5081602001518160010190805190602001906107ba929190612413565b5081604001518160020190805190602001906107d7929190612413565b5081606001518160030190805190602001906107f4929190612413565b508160800151816004019080519060200190610811929190612413565b508160a0015181600501908051906020019061082e929190612413565b508160c0015181600601908051906020019061084b929190612413565b508160e00151816007019080519060200190610868929190612413565b50816101000151816008019080519060200190610886929190612499565b505050565b6108936124f9565b600060029054906101000a900460ff166108e2576040517f08c379a00000000000000000000000000000000000000000000000000000000081526004016108d99061339a565b60405180910390fd5b60006003836040516108f49190613328565b908152602001604051809103902090508060405180610120016040529081600082018054610921906135a5565b80601f016020809104026020016040519081016040528092919081815260200182805461094d906135a5565b801561099a5780601f1061096f5761010080835404028352916020019161099a565b820191906000526020600020905b81548152906001019060200180831161097d57829003601f168201915b505050505081526020016001820180546109b3906135a5565b80601f01602080910402602001604051908101604052809291908181526020018280546109df906135a5565b8015610a2c5780601f10610a0157610100808354040283529160200191610a2c565b820191906000526020600020905b815481529060010190602001808311610a0f57829003601f168201915b50505050508152602001600282018054610a45906135a5565b80601f0160208091040260200160405190810160405280929190818152602001828054610a71906135a5565b8015610abe5780601f10610a9357610100808354040283529160200191610abe565b820191906000526020600020905b815481529060010190602001808311610aa157829003601f168201915b50505050508152602001600382018054610ad7906135a5565b80601f0160208091040260200160405190810160405280929190818152602001828054610b03906135a5565b8015610b505780601f10610b2557610100808354040283529160200191610b50565b820191906000526020600020905b815481529060010190602001808311610b3357829003601f168201915b50505050508152602001600482018054610b69906135a5565b80601f0160208091040260200160405190810160405280929190818152602001828054610b95906135a5565b8015610be25780601f10610bb757610100808354040283529160200191610be2565b820191906000526020600020905b815481529060010190602001808311610bc557829003601f168201915b50505050508152602001600582018054610bfb906135a5565b80601f0160208091040260200160405190810160405280929190818152602001828054610c27906135a5565b8015610c745780601f10610c4957610100808354040283529160200191610c74565b820191906000526020600020905b815481529060010190602001808311610c5757829003601f168201915b50505050508152602001600682018054610c8d906135a5565b80601f0160208091040260200160405190810160405280929190818152602001828054610cb9906135a5565b8015610d065780601f10610cdb57610100808354040283529160200191610d06565b820191906000526020600020905b815481529060010190602001808311610ce957829003601f168201915b50505050508152602001600782018054610d1f906135a5565b80601f0160208091040260200160405190810160405280929190818152602001828054610d4b906135a5565b8015610d985780601f10610d6d57610100808354040283529160200191610d98565b820191906000526020600020905b815481529060010190602001808311610d7b57829003601f168201915b5050505050815260200160088201805480602002602001604051908101604052809291908181526020016000905b82821015610e72578382906000526020600020018054610de5906135a5565b80601f0160208091040260200160405190810160405280929190818152602001828054610e11906135a5565b8015610e5e5780601f10610e3357610100808354040283529160200191610e5e565b820191906000526020600020905b815481529060010190602001808311610e4157829003601f168201915b505050505081526020019060010190610dc6565b5050505081525050915050919050565b600060029054906101000a900460ff16610ed1576040517f08c379a0000000000000000000000000000000000000000000000000000000008152600401610ec89061339a565b60405180910390fd5b600060028260000151604051610ee79190613328565b908152602001604051809103902090508160000151816000019080519060200190610f13929190612413565b508160200151816001019080519060200190610f30929190612413565b508160400151816002019080519060200190610f4d929190612413565b508160600151816003019080519060200190610f6a929190612413565b505050565b60008060029054906101000a900460ff16905090565b610f8d612545565b600060029054906101000a900460ff16610fdc576040517f08c379a0000000000000000000000000000000000000000000000000000000008152600401610fd39061339a565b60405180910390fd5b6000600283604051610fee9190613328565b908152602001604051809103902090508060405180608001604052908160008201805461101a906135a5565b80601f0160208091040260200160405190810160405280929190818152602001828054611046906135a5565b80156110935780601f1061106857610100808354040283529160200191611093565b820191906000526020600020905b81548152906001019060200180831161107657829003601f168201915b505050505081526020016001820180546110ac906135a5565b80601f01602080910402602001604051908101604052809291908181526020018280546110d8906135a5565b80156111255780601f106110fa57610100808354040283529160200191611125565b820191906000526020600020905b81548152906001019060200180831161110857829003601f168201915b5050505050815260200160028201805461113e906135a5565b80601f016020809104026020016040519081016040528092919081815260200182805461116a906135a5565b80156111b75780601f1061118c576101008083540402835291602001916111b7565b820191906000526020600020905b81548152906001019060200180831161119a57829003601f168201915b505050505081526020016003820180546111d0906135a5565b80601f01602080910402602001604051908101604052809291908181526020018280546111fc906135a5565b80156112495780601f1061121e57610100808354040283529160200191611249565b820191906000526020600020905b81548152906001019060200180831161122c57829003601f168201915b505050505081525050915050919050565b600060029054906101000a900460ff166112a9576040517f08c379a00000000000000000000000000000000000000000000000000000000081526004016112a09061339a565b60405180910390fd5b6000600582600001516040516112bf9190613328565b9081526020016040518091039020905081600001518160000190805190602001906112eb929190612413565b508160200151816001019080519060200190611308929190612413565b508160400151816002019080519060200190611325929190612413565b508160600151816003019080519060200190611342929190612413565b505050565b600060039054906101000a900473ffffffffffffffffffffffffffffffffffffffff1673ffffffffffffffffffffffffffffffffffffffff163373ffffffffffffffffffffffffffffffffffffffff16146113d7576040517f08c379a00000000000000000000000000000000000000000000000000000000081526004016113ce9061337a565b60405180910390fd5b80600060026101000a81548160ff02191690831515021790555050565b600060029054906101000a900460ff16611443576040517f08c379a000000000000000000000000000000000000000000000000000000000815260040161143a9061339a565b60405180910390fd5b6000600482600001516040516114599190613328565b908152602001604051809103902090508160000151816000019080519060200190611485929190612413565b5081602001518160010190805190602001906114a2929190612413565b5081604001518160020190805190602001906114bf929190612413565b505050565b600060029054906101000a900460ff16611513576040517f08c379a000000000000000000000000000000000000000000000000000000000815260040161150a9061339a565b60405180910390fd5b6000600182600001516040516115299190613328565b908152602001604051809103902090508160000151816000019080519060200190611555929190612413565b508160200151816001019080519060200190611572929190612413565b50816040015181600201908051906020019061158f929190612413565b5081606001518160030190805190602001906115ac929190612413565b5081608001518160040190805190602001906115c9929190612413565b508160a001518160050190805190602001906115e6929190612413565b508160c00151816006019080519060200190611603929190612499565b508160e00151816007019080519060200190611620929190612413565b505050565b61162d61256d565b600060029054906101000a900460ff1661167c576040517f08c379a00000000000000000000000000000000000000000000000000000000081526004016116739061339a565b60405180910390fd5b600060018360405161168e9190613328565b9081526020016040518091039020905080604051806101000160405290816000820180546116bb906135a5565b80601f01602080910402602001604051908101604052809291908181526020018280546116e7906135a5565b80156117345780601f1061170957610100808354040283529160200191611734565b820191906000526020600020905b81548152906001019060200180831161171757829003601f168201915b5050505050815260200160018201805461174d906135a5565b80601f0160208091040260200160405190810160405280929190818152602001828054611779906135a5565b80156117c65780601f1061179b576101008083540402835291602001916117c6565b820191906000526020600020905b8154815290600101906020018083116117a957829003601f168201915b505050505081526020016002820180546117df906135a5565b80601f016020809104026020016040519081016040528092919081815260200182805461180b906135a5565b80156118585780601f1061182d57610100808354040283529160200191611858565b820191906000526020600020905b81548152906001019060200180831161183b57829003601f168201915b50505050508152602001600382018054611871906135a5565b80601f016020809104026020016040519081016040528092919081815260200182805461189d906135a5565b80156118ea5780601f106118bf576101008083540402835291602001916118ea565b820191906000526020600020905b8154815290600101906020018083116118cd57829003601f168201915b50505050508152602001600482018054611903906135a5565b80601f016020809104026020016040519081016040528092919081815260200182805461192f906135a5565b801561197c5780601f106119515761010080835404028352916020019161197c565b820191906000526020600020905b81548152906001019060200180831161195f57829003601f168201915b50505050508152602001600582018054611995906135a5565b80601f01602080910402602001604051908101604052809291908181526020018280546119c1906135a5565b8015611a0e5780601f106119e357610100808354040283529160200191611a0e565b820191906000526020600020905b8154815290600101906020018083116119f157829003601f168201915b5050505050815260200160068201805480602002602001604051908101604052809291908181526020016000905b82821015611ae8578382906000526020600020018054611a5b906135a5565b80601f0160208091040260200160405190810160405280929190818152602001828054611a87906135a5565b8015611ad45780601f10611aa957610100808354040283529160200191611ad4565b820191906000526020600020905b815481529060010190602001808311611ab757829003601f168201915b505050505081526020019060010190611a3c565b505050508152602001600782018054611b00906135a5565b80601f0160208091040260200160405190810160405280929190818152602001828054611b2c906135a5565b8015611b795780601f10611b4e57610100808354040283529160200191611b79565b820191906000526020600020905b815481529060010190602001808311611b5c57829003601f168201915b505050505081525050915050919050565b600060029054906101000a900460ff16611bd9576040517f08c379a0000000000000000000000000000000000000000000000000000000008152600401611bd09061339a565b60405180910390fd5b600060018260000151604051611bef9190613328565b908152602001604051809103902090508160000151816000019080519060200190611c1b929190612413565b508160200151816001019080519060200190611c38929190612413565b508160400151816002019080519060200190611c55929190612413565b508160600151816003019080519060200190611c72929190612413565b508160800151816004019080519060200190611c8f929190612413565b508160a00151816005019080519060200190611cac929190612413565b508160c00151816006019080519060200190611cc9929190612499565b508160e00151816007019080519060200190611ce6929190612413565b505050565b600060019054906101000a900460ff16611d135760008054906101000a900460ff1615611d1c565b611d1b6123c7565b5b611d5b576040517f08c379a0000000000000000000000000000000000000000000000000000000008152600401611d529061335a565b60405180910390fd5b60008060019054906101000a900460ff161590508015611dab576001600060016101000a81548160ff02191690831515021790555060016000806101000a81548160ff0219169083151502179055505b6001600060026101000a81548160ff02191690831515021790555033600060036101000a81548173ffffffffffffffffffffffffffffffffffffffff021916908373ffffffffffffffffffffffffffffffffffffffff1602179055508015611e285760008060016101000a81548160ff0219169083151502179055505b50565b611e336125b2565b600060029054906101000a900460ff16611e82576040517f08c379a0000000000000000000000000000000000000000000000000000000008152600401611e799061339a565b60405180910390fd5b6000600483604051611e949190613328565b9081526020016040518091039020905080604051806060016040529081600082018054611ec0906135a5565b80601f0160208091040260200160405190810160405280929190818152602001828054611eec906135a5565b8015611f395780601f10611f0e57610100808354040283529160200191611f39565b820191906000526020600020905b815481529060010190602001808311611f1c57829003601f168201915b50505050508152602001600182018054611f52906135a5565b80601f0160208091040260200160405190810160405280929190818152602001828054611f7e906135a5565b8015611fcb5780601f10611fa057610100808354040283529160200191611fcb565b820191906000526020600020905b815481529060010190602001808311611fae57829003601f168201915b50505050508152602001600282018054611fe4906135a5565b80601f0160208091040260200160405190810160405280929190818152602001828054612010906135a5565b801561205d5780601f106120325761010080835404028352916020019161205d565b820191906000526020600020905b81548152906001019060200180831161204057829003601f168201915b505050505081525050915050919050565b600060029054906101000a900460ff166120bd576040517f08c379a00000000000000000000000000000000000000000000000000000000081526004016120b49061339a565b60405180910390fd5b6000600582600001516040516120d39190613328565b9081526020016040518091039020905081600001518160000190805190602001906120ff929190612413565b50816020015181600101908051906020019061211c929190612413565b508160400151816002019080519060200190612139929190612413565b508160600151816003019080519060200190612156929190612413565b505050565b600060029054906101000a900460ff166121aa576040517f08c379a00000000000000000000000000000000000000000000000000000000081526004016121a19061339a565b60405180910390fd5b6000600382600001516040516121c09190613328565b9081526020016040518091039020905081600001518160000190805190602001906121ec929190612413565b508160200151816001019080519060200190612209929190612413565b508160400151816002019080519060200190612226929190612413565b508160600151816003019080519060200190612243929190612413565b508160800151816004019080519060200190612260929190612413565b508160a0015181600501908051906020019061227d929190612413565b508160c0015181600601908051906020019061229a929190612413565b508160e001518160070190805190602001906122b7929190612413565b508161010001518160080190805190602001906122d5929190612499565b505050565b600060029054906101000a900460ff16612329576040517f08c379a00000000000000000000000000000000000000000000000000000000081526004016123209061339a565b60405180910390fd5b60006002826000015160405161233f9190613328565b90815260200160405180910390209050816000015181600001908051906020019061236b929190612413565b508160200151816001019080519060200190612388929190612413565b5081604001518160020190805190602001906123a5929190612413565b5081606001518160030190805190602001906123c2929190612413565b505050565b60006123d2306123d8565b15905090565b600080823b905060008111915050919050565b6040518060800160405280606081526020016060815260200160608152602001606081525090565b82805461241f906135a5565b90600052602060002090601f0160209004810192826124415760008555612488565b82601f1061245a57805160ff1916838001178555612488565b82800160010185558215612488579182015b8281111561248757825182559160200191906001019061246c565b5b50905061249591906125d3565b5090565b8280548282559060005260206000209081019282156124e8579160200282015b828111156124e75782518290805190602001906124d7929190612413565b50916020019190600101906124b9565b5b5090506124f591906125f0565b5090565b6040518061012001604052806060815260200160608152602001606081526020016060815260200160608152602001606081526020016060815260200160608152602001606081525090565b6040518060800160405280606081526020016060815260200160608152602001606081525090565b60405180610100016040528060608152602001606081526020016060815260200160608152602001606081526020016060815260200160608152602001606081525090565b60405180606001604052806060815260200160608152602001606081525090565b5b808211156125ec5760008160009055506001016125d4565b5090565b5b8082111561261057600081816126079190612614565b506001016125f1565b5090565b508054612620906135a5565b6000825580601f106126325750612651565b601f01602090049060005260206000209081019061265091906125d3565b5b50565b600061266761266284613489565b613464565b9050808382526020820190508260005b858110156126a7578135850161268d888261272e565b845260208401935060208301925050600181019050612677565b5050509392505050565b60006126c46126bf846134b5565b613464565b9050828152602081018484840111156126dc57600080fd5b6126e7848285613563565b509392505050565b600082601f83011261270057600080fd5b8135612710848260208601612654565b91505092915050565b60008135905061272881613718565b92915050565b600082601f83011261273f57600080fd5b813561274f8482602086016126b1565b91505092915050565b60006060828403121561276a57600080fd5b6127746060613464565b9050600082013567ffffffffffffffff81111561279057600080fd5b61279c8482850161272e565b600083015250602082013567ffffffffffffffff8111156127bc57600080fd5b6127c88482850161272e565b602083015250604082013567ffffffffffffffff8111156127e857600080fd5b6127f48482850161272e565b60408301525092915050565b60006080828403121561281257600080fd5b61281c6080613464565b9050600082013567ffffffffffffffff81111561283857600080fd5b6128448482850161272e565b600083015250602082013567ffffffffffffffff81111561286457600080fd5b6128708482850161272e565b602083015250604082013567ffffffffffffffff81111561289057600080fd5b61289c8482850161272e565b604083015250606082013567ffffffffffffffff8111156128bc57600080fd5b6128c88482850161272e565b60608301525092915050565b600061010082840312156128e757600080fd5b6128f2610100613464565b9050600082013567ffffffffffffffff81111561290e57600080fd5b61291a8482850161272e565b600083015250602082013567ffffffffffffffff81111561293a57600080fd5b6129468482850161272e565b602083015250604082013567ffffffffffffffff81111561296657600080fd5b6129728482850161272e565b604083015250606082013567ffffffffffffffff81111561299257600080fd5b61299e8482850161272e565b606083015250608082013567ffffffffffffffff8111156129be57600080fd5b6129ca8482850161272e565b60808301525060a082013567ffffffffffffffff8111156129ea57600080fd5b6129f68482850161272e565b60a08301525060c082013567ffffffffffffffff811115612a1657600080fd5b612a22848285016126ef565b60c08301525060e082013567ffffffffffffffff811115612a4257600080fd5b612a4e8482850161272e565b60e08301525092915050565b60006101208284031215612a6d57600080fd5b612a78610120613464565b9050600082013567ffffffffffffffff811115612a9457600080fd5b612aa08482850161272e565b600083015250602082013567ffffffffffffffff811115612ac057600080fd5b612acc8482850161272e565b602083015250604082013567ffffffffffffffff811115612aec57600080fd5b612af88482850161272e565b604083015250606082013567ffffffffffffffff811115612b1857600080fd5b612b248482850161272e565b606083015250608082013567ffffffffffffffff811115612b4457600080fd5b612b508482850161272e565b60808301525060a082013567ffffffffffffffff811115612b7057600080fd5b612b7c8482850161272e565b60a08301525060c082013567ffffffffffffffff811115612b9c57600080fd5b612ba88482850161272e565b60c08301525060e082013567ffffffffffffffff811115612bc857600080fd5b612bd48482850161272e565b60e08301525061010082013567ffffffffffffffff811115612bf557600080fd5b612c01848285016126ef565b6101008301525092915050565b600060808284031215612c2057600080fd5b612c2a6080613464565b9050600082013567ffffffffffffffff811115612c4657600080fd5b612c528482850161272e565b600083015250602082013567ffffffffffffffff811115612c7257600080fd5b612c7e8482850161272e565b602083015250604082013567ffffffffffffffff811115612c9e57600080fd5b612caa8482850161272e565b604083015250606082013567ffffffffffffffff811115612cca57600080fd5b612cd68482850161272e565b60608301525092915050565b600060208284031215612cf457600080fd5b6000612d0284828501612719565b91505092915050565b600060208284031215612d1d57600080fd5b600082013567ffffffffffffffff811115612d3757600080fd5b612d438482850161272e565b91505092915050565b600060208284031215612d5e57600080fd5b600082013567ffffffffffffffff811115612d7857600080fd5b612d8484828501612758565b91505092915050565b600060208284031215612d9f57600080fd5b600082013567ffffffffffffffff811115612db957600080fd5b612dc584828501612800565b91505092915050565b600060208284031215612de057600080fd5b600082013567ffffffffffffffff811115612dfa57600080fd5b612e06848285016128d4565b91505092915050565b600060208284031215612e2157600080fd5b600082013567ffffffffffffffff811115612e3b57600080fd5b612e4784828501612a5a565b91505092915050565b600060208284031215612e6257600080fd5b600082013567ffffffffffffffff811115612e7c57600080fd5b612e8884828501612c0e565b91505092915050565b6000612e9d8383612f29565b905092915050565b6000612eb0826134f6565b612eba8185613519565b935083602082028501612ecc856134e6565b8060005b85811015612f085784840389528151612ee98582612e91565b9450612ef48361350c565b925060208a01995050600181019050612ed0565b50829750879550505050505092915050565b612f2381613557565b82525050565b6000612f3482613501565b612f3e818561352a565b9350612f4e818560208601613572565b612f5781613666565b840191505092915050565b6000612f6d82613501565b612f77818561354c565b9350612f87818560208601613572565b80840191505092915050565b6000612fa0602e8361353b565b9150612fab82613677565b604082019050919050565b6000612fc360128361353b565b9150612fce826136c6565b602082019050919050565b6000612fe6601c8361353b565b9150612ff1826136ef565b602082019050919050565b600060608301600083015184820360008601526130198282612f29565b915050602083015184820360208601526130338282612f29565b9150506040830151848203604086015261304d8282612f29565b9150508091505092915050565b600060808301600083015184820360008601526130778282612f29565b915050602083015184820360208601526130918282612f29565b915050604083015184820360408601526130ab8282612f29565b915050606083015184820360608601526130c58282612f29565b9150508091505092915050565b60006101008301600083015184820360008601526130f08282612f29565b9150506020830151848203602086015261310a8282612f29565b915050604083015184820360408601526131248282612f29565b9150506060830151848203606086015261313e8282612f29565b915050608083015184820360808601526131588282612f29565b91505060a083015184820360a08601526131728282612f29565b91505060c083015184820360c086015261318c8282612ea5565b91505060e083015184820360e08601526131a68282612f29565b9150508091505092915050565b60006101208301600083015184820360008601526131d18282612f29565b915050602083015184820360208601526131eb8282612f29565b915050604083015184820360408601526132058282612f29565b9150506060830151848203606086015261321f8282612f29565b915050608083015184820360808601526132398282612f29565b91505060a083015184820360a08601526132538282612f29565b91505060c083015184820360c086015261326d8282612f29565b91505060e083015184820360e08601526132878282612f29565b9150506101008301518482036101008601526132a38282612ea5565b9150508091505092915050565b600060808301600083015184820360008601526132cd8282612f29565b915050602083015184820360208601526132e78282612f29565b915050604083015184820360408601526133018282612f29565b9150506060830151848203606086015261331b8282612f29565b9150508091505092915050565b60006133348284612f62565b915081905092915050565b60006020820190506133546000830184612f1a565b92915050565b6000602082019050818103600083015261337381612f93565b9050919050565b6000602082019050818103600083015261339381612fb6565b9050919050565b600060208201905081810360008301526133b381612fd9565b9050919050565b600060208201905081810360008301526133d48184612ffc565b905092915050565b600060208201905081810360008301526133f6818461305a565b905092915050565b6000602082019050818103600083015261341881846130d2565b905092915050565b6000602082019050818103600083015261343a81846131b3565b905092915050565b6000602082019050818103600083015261345c81846132b0565b905092915050565b600061346e61347f565b905061347a82826135d7565b919050565b6000604051905090565b600067ffffffffffffffff8211156134a4576134a3613637565b5b602082029050602081019050919050565b600067ffffffffffffffff8211156134d0576134cf613637565b5b6134d982613666565b9050602081019050919050565b6000819050602082019050919050565b600081519050919050565b600081519050919050565b6000602082019050919050565b600082825260208201905092915050565b600082825260208201905092915050565b600082825260208201905092915050565b600081905092915050565b60008115159050919050565b82818337600083830152505050565b60005b83811015613590578082015181840152602081019050613575565b8381111561359f576000848401525b50505050565b600060028204905060018216806135bd57607f821691505b602082108114156135d1576135d0613608565b5b50919050565b6135e082613666565b810181811067ffffffffffffffff821117156135ff576135fe613637565b5b80604052505050565b7f4e487b7100000000000000000000000000000000000000000000000000000000600052602260045260246000fd5b7f4e487b7100000000000000000000000000000000000000000000000000000000600052604160045260246000fd5b6000601f19601f8301169050919050565b7f496e697469616c697a61626c653a20636f6e747261637420697320616c72656160008201527f647920696e697469616c697a6564000000000000000000000000000000000000602082015250565b7f5065726d697373696f6e20726571756972650000000000000000000000000000600082015250565b7f536d61727420636f6e7472616374206973206e6f742061637469766500000000600082015250565b61372181613557565b811461372c57600080fd5b5056fea26469706673582212208f149e449046629673a7be287e3dbf0cf5a14dd854d4ac2093ef1cf81283837e64736f6c63430008030033",
  "immutableReferences": {},
  "source": "// SPDX-License-Identifier: UNLICENSED\npragma experimental ABIEncoderV2;\n\npragma solidity ^0.8.3;\n\nimport \"@openzeppelin/contracts-upgradeable/proxy/utils/Initializable.sol\";\n\ncontract Bagriv1 is Initializable {\n    bool _active;\n    address _owner;\n\n    modifier checkStatus() {\n        require(_active, \"Smart contract is not active\");\n        _;\n    }\n\n    modifier checkOwner() {\n        require(msg.sender==_owner, \"Permission require\");\n        _;\n    }\n    \n\n    struct Season{\n        string season_id;\n        string processes;\n        string start_date;\n        string end_date;\n        string name;\n        string garden_id;\n        string[] task_ids;\n        string tree_id;\n    }\n    mapping(string => Season) seasons;\n\n    struct Garden{\n        string garden_id;\n        string name;\n        string area;\n        string season_id;\n    }\n    mapping(string => Garden) gardens;\n\n    struct Task{\n        string task_id;\n        string name;\n        string description;\n        string date;\n        string start_time;\n        string end_time;\n        string results;\n        string season_id;\n        string[] farmer_ids;\n    }\n    mapping(string => Task) tasks;\n\n    struct Farmer{\n        string farmer_id;\n        string name;\n        string task_id;\n    }\n    mapping(string => Farmer) farmers;\n\n    struct Tree{\n        string tree_id;\n        string name;\n        string description;\n        string season_id;\n    }\n    mapping(string => Tree) trees;\n\n    function getSeason(\n        string memory season_id) checkStatus public view returns(Season memory){\n        Season storage _season = seasons[season_id];\n        return (_season);\n    }\n    function createSeason(Season memory season) checkStatus public {\n        Season storage _season = seasons[season.season_id];\n        _season.season_id = season.season_id;\n        _season.processes = season.processes;\n        _season.start_date = season.start_date;\n        _season.end_date = season.end_date;\n        _season.name = season.name;\n        _season.garden_id = season.garden_id;\n        _season.task_ids = season.task_ids;\n        _season.tree_id = season.tree_id;\n    }    \n    function updateSeason(Season memory season) checkStatus public {\n        Season storage _season = seasons[season.season_id];\n        _season.season_id = season.season_id;\n        _season.processes = season.processes;\n        _season.start_date = season.start_date;\n        _season.end_date = season.end_date;\n        _season.name = season.name;\n        _season.garden_id = season.garden_id;\n        _season.task_ids = season.task_ids;\n        _season.tree_id = season.tree_id;\n    }    \n    function getGarden(\n        string memory garden_id) checkStatus public view returns(Garden memory){\n        Garden storage _garden = gardens[garden_id];\n        return (_garden);\n    }\n    function createGarden(Garden memory garden) checkStatus public {\n        Garden storage _garden = gardens[garden.garden_id];\n        _garden.garden_id = garden.garden_id;\n        _garden.name = garden.name;\n        _garden.area = garden.area;\n        _garden.season_id = garden.season_id;\n    }    \n    function updateGarden(Garden memory garden) checkStatus public {\n        Garden storage _garden = gardens[garden.garden_id];\n        _garden.garden_id = garden.garden_id;\n        _garden.name = garden.name;\n        _garden.area = garden.area;\n        _garden.season_id = garden.season_id;\n    }    \n    function getTask(\n        string memory task_id) checkStatus public view returns(Task memory){\n        Task storage _task = tasks[task_id];\n        return (_task);\n    }\n    function createTask(Task memory task) checkStatus public {\n        Task storage _task = tasks[task.task_id];\n        _task.task_id = task.task_id;\n        _task.name = task.name;\n        _task.description = task.description;\n        _task.date = task.date;\n        _task.start_time = task.start_time;\n        _task.end_time = task.end_time;\n        _task.results = task.results;\n        _task.season_id = task.season_id;\n        _task.farmer_ids = task.farmer_ids;\n    }    \n    function updateTask(Task memory task) checkStatus public {\n        Task storage _task = tasks[task.task_id];\n        _task.task_id = task.task_id;\n        _task.name = task.name;\n        _task.description = task.description;\n        _task.date = task.date;\n        _task.start_time = task.start_time;\n        _task.end_time = task.end_time;\n        _task.results = task.results;\n        _task.season_id = task.season_id;\n        _task.farmer_ids = task.farmer_ids;\n    }    \n    function getFarmer(\n        string memory farmer_id) checkStatus public view returns(Farmer memory){\n        Farmer storage _farmer = farmers[farmer_id];\n        return (_farmer);\n    }\n    function createFarmer(Farmer memory farmer) checkStatus public {\n        Farmer storage _farmer = farmers[farmer.farmer_id];\n        _farmer.farmer_id = farmer.farmer_id;\n        _farmer.name = farmer.name;\n        _farmer.task_id = farmer.task_id;\n    }    \n    function updateFarmer(Farmer memory farmer) checkStatus public {\n        Farmer storage _farmer = farmers[farmer.farmer_id];\n        _farmer.farmer_id = farmer.farmer_id;\n        _farmer.name = farmer.name;\n        _farmer.task_id = farmer.task_id;\n    }    \n    function getTree(\n        string memory tree_id) checkStatus public view returns(Tree memory){\n        Tree storage _tree = trees[tree_id];\n        return (_tree);\n    }\n    function createTree(Tree memory tree) checkStatus public {\n        Tree storage _tree = trees[tree.tree_id];\n        _tree.tree_id = tree.tree_id;\n        _tree.name = tree.name;\n        _tree.description = tree.description;\n        _tree.season_id = tree.season_id;\n    }    \n    function updateTree(Tree memory tree) checkStatus public {\n        Tree storage _tree = trees[tree.tree_id];\n        _tree.tree_id = tree.tree_id;\n        _tree.name = tree.name;\n        _tree.description = tree.description;\n        _tree.season_id = tree.season_id;\n    }    \n\n    function initialize() public initializer {\n        _active = true;\n        _owner = msg.sender;\n    }\n\n    function getStatus() public view returns(bool) {\n        return _active;\n    }\n\n    function setStatus(bool active) checkOwner public {\n        _active = active;\n    }\n}",
  "sourcePath": "/ether-service/ether_service/applications/usertest/Rinkeby/bagri/v1/deployment/contracts/Bagriv1.sol",
  "compiler": {
    "name": "solc",
    "version": "0.8.3+commit.8d00100c.Emscripten.clang"
  },
  "schemaVersion": "3.4.1",
  "updatedAt": "2022-03-16T08:46:37.542Z",
  "networkType": "ethereum",
  "devdoc": {
    "kind": "dev",
    "methods": {},
    "version": 1
  },
  "userdoc": {
    "kind": "user",
    "methods": {},
    "version": 1
  }
}